:02000002B0004C
:1040000000400B000A530B00000006000C000502E4
:084010000401B61400000000D9
:0440180030500B0019
:10401C00034613F8012B002AFBD1181A01387047FC
:10402C0009480A49884208B505D0094A824202D09B
:10403C00121A00F04DFF0748074A0021121A00F02F
:10404C0055FF014808BD00BF3CE6032070520B0031
:10405C00A8E60320A8E60320F0E7032070B5074E7E
:10406C00074C00F0FDFDA41BA4080025AC4200D1B8
:10407C0070BD56F8043B98470135F7E728520B0002
:10408C004C520B0000F013B808B500F021F8BDE855
:10409C00084000F09DBD00F0FDB900F003BA0078B7
:1040AC00B0FA80F04009704701230370704708B5DF
:1040BC0000F008FD4FF4165100F0F8FC012105202A
:1040CC0000F03EFEBDE8084000210E2000F038BE96
:1040DC0038B50E2000F05EFE0D4C208000F0F2FC96
:1040EC000A222188054600F0F2FB284600F0E3FB8B
:1040FC000121052000F035FE208800F0EBF90520A9
:10410C00002100F02EFE2088BDE8384000F0E2B916
:10411C00B4E6032010B5074B074A9A600024C3E9A4
:10412C000044032000F022F921460120BDE8104094
:10413C0000F02CB9A8E603200000FFFF08B5024BE5
:10414C001B685B6C019308BD4802030008B5024B69
:10415C001B685B68019308BD1802030008B5024B8D
:10416C001B685B69019308BD1802030008B5024B7C
:10417C001B685B68019308BD2C02030008B5024B59
:10418C001B689B68019308BD2C02030008B5024B09
:10419C001B68DB68019308BD2C02030008B5024BB9
:1041AC001B681B69019308BD2C02030008B5024B68
:1041BC001B681B6B019308BD2C02030008B5024B56
:1041CC001B681B6A019308BD2802030008B5024B4B
:1041DC001B685B6A019308BD2802030008B5024BFB
:1041EC001B689B6A019308BD2802030008B5024BAB
:1041FC001B68DB6A019308BD2802030008B5024B5B
:10420C001B681B6B019308BD2802030008B5024B09
:10421C001B685B6B019308BD2802030008B5024BB9
:10422C001B681B6C019308BD2802030008B5024BE8
:10423C001B685B69019308BD6402030008B5024B5F
:10424C001B689B68019308BD6802030008B5024B0C
:10425C001B68DB68019308BD6802030008B5024BBC
:10426C001B68DB69019308BD3002030008B5024BE3
:10427C001B681B6A019308BD3002030008B5024B92
:10428C001B68DB68019308BD3C02030008B5024BB8
:10429C001B681B69019308BD3C02030008B5024B67
:1042AC001B685B69019308BD3C02030008B5024B17
:1042BC001B689B69019308BD3C02030008B5024BC7
:1042CC001B68DB69019308BD3C02030008B5024B77
:1042DC001B681B6A019308BD3C02030008B5024B26
:1042EC001B689B6A019308BD3C02030008B5024B96
:1042FC001B681B6C019308BD3C02030008B5024B04
:10430C001B681B68019308BD4C02030008B5024BE7
:10431C001B685B68019308BD4C02030008B5024B97
:10432C001B681B69019308BD4C02030008B5024BC6
:10433C001B685B69019308BD4C02030008B5024B76
:10434C001B689B69019308BD4C02030008B5024B26
:10435C001B68DB69019308BD4C02030008B5024BD6
:10436C001B681B6A019308BD4C02030008B5024B85
:10437C001B685B68019308BD2002030008B5024B63
:10438C001B685B69019308BD2002030008B5024B52
:10439C001B68DB6A019308BD2002030008B5034BC0
:1043AC001B68D3F88830019308BD0000200203007D
:1043BC0008B5034B1B68D3F89430019308BD00007B
:1043CC002002030008B5024B1B68DB6B019308BD90
:1043DC004402030008B5024B1B685B68019308BDDF
:1043EC004002030008B5024B1B689B68019308BD93
:1043FC004002030008B5024B1B68DB68019308BD43
:10440C004002030008B5024B1B681B69019308BDF1
:10441C004002030008B5024B1B685B69019308BDA1
:10442C004002030008B5024B1B689B69019308BD51
:10443C004002030008B5024B1B68DB69019308BD01
:10444C004002030008B5024B1B681B6A019308BDB0
:10445C004002030008B5024B1B681B6B019308BD9F
:10446C004002030008B5024B1B685B6B019308BD4F
:10447C004002030008B5024B1B681B6C019308BD7E
:10448C004002030008B5024B1B685B6C019308BD2E
:10449C004002030008B5024B1B681B68019308BD62
:1044AC001C02030008B5024B1B685B68019308BD36
:1044BC001C02030008B5024B1B681B6C019308BD62
:1044CC001C02030008B5024B1B685B6C019308BD12
:1044DC001C0203000021FFF751BF0000024800231B
:1044EC000360FFF72BBE00BFB8E603200022406834
:1044FC001146FFF7A7BF002240681146FFF7B2BF75
:10450C0040680022FFF7A6BF4068002281F001013D
:10451C00FFF790BF002340681A461946FFF782BF89
:10452C00002340681A461946FFF774BF0022406802
:10453C001146FFF767BF002240681146FFF752BFD4
:10454C00406800220221FFF755BF002340681A463D
:10455C00FFF740BF024B03225A60024A1A607047B1
:10456C00BCE603204C500B007047F8B506461546C8
:10457C000C468F18BC4206D0336814F8011B9B689C
:10458C0030469847F6E72846F8BD007C0022FFF736
:10459C0015BE007C0021FFF719BE007C0021FFF73F
:1045AC001DBE007C0021FFF721BE007C0021FFF71F
:1045BC0025BE10B514210446FFF76FFD204610BD33
:1045CC0038B5044615464FF47A730022C4E901232A
:1045DC00094B2174084623602946FFF71FFEBF30A4
:1045EC0008D16B69DB0705D56868FFF75BFFE868E6
:1045FC00FFF758FF204638BD88500B00704710B5A8
:10460C0018210446FFF749FD204610BDF0B5037D87
:10461C00062B8DB00E4600F104074FF0000412D0AB
:10462C0000F1080515F8011D0A22304600F04FF97B
:10463C00AF42044419D0002CF4D02E21304600F0A7
:10464C0037F90444EEE72F236A4639460A208DF8E1
:10465C000040FFF7EBFD6846FFF7DAFC33680246D3
:10466C00DB68694630469847044620460DB0F0BDDD
:10467C0010B5054B0446112240F8043B002100F014
:10468C0035FC204610BD00BFB0500B000346074A56
:10469C0010B543F8042B01F1100251F8044B43F808
:1046AC00044B9142F9D10A781A7010BDB0500B002E
:1046BC0010B59DF8084044EA032343EA024242EA5B
:1046CC00016104234160037510BD000007B5064B62
:1046DC000360CB7800938B784A780978FFF7E8FF72
:1046EC0003B05DF804FB00BFB0500B00014B024A55
:1046FC001A607047C4E60320BC500B0000234068CE
:10470C001A46FFF767BE406800220221FFF772BE0F
:10471C00002240681146FFF765BE00224068114632
:10472C00FFF770BE002340681A461946FFF772BEA9
:10473C00002340681A461946FFF774BE40680021F2
:10474C00FFF798BE40680021FFF79CBE406800222E
:10475C0081F00101FFF76EBE40680022FFF77ABEC0
:10476C00002240681146FFF77DBE002240681146CA
:10477C00FFF768BE2DE9F04395B014460D46074689
:10478C00FFF776FF00211C220DA8009100F0AEFB74
:10479C0040230C9320466B460CAA0021FFF756FDD4
:1047AC00044600284BD1024601216868FFF72AFE17
:1047BC000221804622466868FFF724FE009E81464F
:1047CC002146002E3BD0002939D17368022B03D02F
:1047DC000A2B11D0F669F4E7B8F1000FFAD0716921
:1047EC0006A8043107ADFFF771FF0FCD3C1D0FC4B8
:1047FC002B6823704146EDE7B9F1000FEAD07469DC
:10480C00102201A800F072FB06238DF8143001ADC4
:10481C0004F108031834186859682A4603C208338F
:10482C00A3421546F7D101A906A807ADFFF72EFF45
:10483C000FCD3C1D0FC42B6823704946CAE7009866
:10484C00FFF7FCFC384615B0BDE8F083024B034A79
:10485C001A6000225A607047C8E60320C8500B004B
:10486C00F8B506460D468F180024BD420CD03368AF
:10487C0015F8011B9B6830469847031E01DB1C444E
:10488C00F3E7002C08BF1C462046F8BD13B50446C0
:10489C00084659B10191FFF7BBFB23680199DB680E
:1048AC000246204602B0BDE81040184702B010BDC9
:1048BC0003689B68184738B50D210546FFF7F8FFCC
:1048CC000A2104462846FFF7F3FF204438BD30B5D3
:1048DC008BB00023012A8DF8243098BF0A2209AC32
:1048EC000D46B1FBF2F101FB125303F0FF03092B50
:1048FC0094BF30333733DBB2AA4204F8013DEFD911
:10490C002146FFF7C3FF0BB030BD0000014B002266
:10491C009A607047D0E6032010B504460846217013
:10492C00FFF79CFC00236360204610BD054B022260
:10493C001A60054B054A9A600020C3E90000FFF796
:10494C0015BD00BFECE60320E0E603200000FFFFEE
:10495C00024B1A68024B1A60704700BF3CE60320FA
:10496C00F0E6032070474174704708B5007CFFF7F0
:10497C00B5FC20EAE07008BD08B5007CFFF786FCAA
:10498C0020EAE07008BD08B5007CFFF78FFC40EA18
:10499C00E07008BD08B5007CFFF780FC40EAE070D1
:1049AC0008BD007CFFF78ABC37B5457C04462DB1A9
:1049BC00207C03B0BDE83040FFF760BC007C019167
:1049CC00FFF78CFC00280199F2DC284603B030BDBF
:1049DC0010B514210446FFF760FB204610BD000003
:1049EC0010B54FF47A730446084611460022C4E908
:1049FC000123044B2360012320746374FFF776FCBE
:104A0C00204610BD20510B00417470477047704711
:104A1C0008B50021007CFFF791FC40EAE07008BD6E
:104A2C0008B50121007CFFF789FC40EAE07008BD65
:104A3C0008B5007CFFF77AFC20EAE07008BD08B5E9
:104A4C00007CFFF76BFC20EAE07008BD13B5044650
:104A5C00007C0191FFF76AFC0028019901DC607C65
:104A6C0020B1207CFFF772FC20EAE07002B010BD90
:104A7C00007CFFF773BC10B514210446FFF70DFB47
:104A8C00204610BD10B54FF47A7304460846002139
:104A9C00C4E90113044B2360012320746374114691
:104AAC00FFF72CFC204610BD50510B00007C00225F
:104ABC00FFF72CBC10B514220446002100F016FAA6
:104ACC00204610BD10B50F4C88B003A8FFF7F2FFBD
:104ADC002178BFF35B8F11F001010FD120460191BA
:104AEC00FFF7DDFA019948B103AA0748FFF7CAFF9F
:104AFC002046FFF7D9FA054800F0E4F9024808B05F
:104B0C0010BD00BFF4E60320F8E60320194A0B00A1
:104B1C00002240681146FFF775BC00224068114620
:104B2C00FFF790BC002240681146FFF79BBC406821
:104B3C000022FFF78FBC4068002281F00101FFF7D3
:104B4C0079BC002340681A461946FFF76BBC00235A
:104B5C0040681A461946FFF75DBC002240681146B2
:104B6C00FFF740BC406800220221FFF743BC002342
:104B7C0040681A46FFF72EBC024B04225A60024AC8
:104B8C001A6070470CE7032080510B00014B186032
:104B9C00704700BF40E6032008B50B4B43B1FFF74D
:104BAC0091FF03681B699847002801DDAFF3008073
:104BBC00064B43B100F060F903681B699847002865
:104BCC0001DDAFF3008008BD000000000000000014
:104BDC0008B5FFF7E1FFFFF7C1FA014B186008BDFC
:104BEC0028E703200548064A064908B5121A00F0C2
:104BFC006FF9054B054A1A6008BD00BF00F403208D
:104C0C0004F40320DC520B0000F403201E1C279A32
:104C1C0007B5002300931A466FF07701FFF7C8FB26
:104C2C0003B05DF804FB000007B543880A2B08D0DD
:104C3C00502B0BD1094B1B684BB103B05DF804EB47
:104C4C001847FFF7E5FF03B05DF804FB0023009362
:104C5C001A466FF07701FFF7ABFBF4E718E7032078
:104C6C0010B512480021FFF72DFC114B1A68114B9F
:104C7C009A42114B0CBF012200221A7001D0FFF78F
:104C8C00B1FFFFF763FA044600F038F90B4B13B190
:104C9C002046AFF3008000210848FFF793FBBDE8E6
:104CAC00104007480021FFF779BB00BF994B0B0060
:104CBC0000F403201E1C279A14E7032000000000B8
:104CCC00354C0B00232813B502D9002002B010BDBF
:104CDC00A0F10B03022B1AD8174C2178BFF35B8F72
:104CEC0011F001010BD120460191FFF7D8F9019980
:104CFC0028B11248FFF710FE2046FFF7D5F90F4BED
:104D0C001878FFF7B3FA0028DFD10120DEE701287D
:104D1C0009D800F071F80021007CFFF777FA80F0D9
:104D2C000100C0B2D2E709380128EED800F0A4F88F
:104D3C00007CFFF7CBFAF2E71CE7032020E7032007
:104D4C00232838B504460D460AD8FF2908D0FFF7AA
:104D5C00B9FF28B129462046BDE83840FFF70EBA06
:104D6C0038BD38B504460D46FFF710FAFF2810D0B1
:104D7C00062804D84D2323FA00F0C30709D4204693
:104D8C00FFF7A0FF28B129462046BDE83840FFF7C1
:104D9C0005BA38BD0D2810B504469CBF0E34A4B21C
:104DAC002046FFF78FFF50B103212046FFF7DEF9B5
:104DBC00032804D12046BDE81040FFF7F7B90020C6
:104DCC0010BD704738B50A4B03600123044643619C
:104DDC000849202000F074F8202560600549A56082
:104DEC00284600F06DF8C4E90305204638BD00BF25
:104DFC0018000100B4510B0030B50E4D2978BFF3EB
:104E0C005B8F11F0010487B011D12846FFF747F9E9
:104E1C0068B16846FFF7D6FF6A4621460648FFF799
:104E2C00CFFB2846FFF740F9044800F04BF8024846
:104E3C0007B030BD2CE7032030E70320CF4D0B002B
:104E4C007047000038B5044614252A46002100F0AE
:104E5C004DF825804025074925812846258200F0FC
:104E6C002FF804496060284600F02AF8E0602046DC
:104E7C0038BD00BFB4510B0030B50E4D2978BFF3CF
:104E8C005B8F11F0010487B011D12846FFF707F9A9
:104E9C0068B101A8FFF7D6FF01AA21460648FFF723
:104EAC009FFD2846FFF700F9044800F00BF8024874
:104EBC0007B030BD44E7032048E703204D4E0B00FC
:104ECC00FFF7E9B8002301461A46184600F044B82B
:104EDC000A44914200F1FF3300D1704710B511F82C
:104EEC00014B03F8014F9142F9D110BD0244034626
:104EFC00934200D1704703F8011BF9E738B5104B0A
:104F0C001D68AB6B0446B3B91820FFF7C3FA024611
:104F1C00A86320B90B4B0C484221FFF7CBFA0B4985
:104F2C000B4BC0E900130B4B83600B2383810021D7
:104F3C000120C2E90401AB6B00221C615A6138BD2F
:104F4C0040E60320B5510B00CC510B000E33CDAB1A
:104F5C0034126DE6ECDE05002DE9F843DFF8B8807D
:104F6C000646D8F800001F460D46914600F056F84C
:104F7C00254B1C6834B9254C1C60254B13B11B68A0
:104F8C00C4F8883063681F2B07DDD8F8000000F0E8
:104F9C0047F84FF0FF30BDE8F8834EB3D4F88800E3
:104FAC0088B91C4B23B9D8F8000000F038F8F0E7AA
:104FBC004FF48470FFF76EFA0028F4D00023C0E998
:104FCC004033C4F88800636840F8239001229A406B
:104FDC0000EB8301D0F800311343C0F80031022EEE
:104FEC00C1F8807002BFD0F804311343C0F804310B
:104FFC006368D8F800005A1C0233626044F82350EE
:10500C0000F00EF80020C6E7E8E703205CE7032079
:10501C0000000000A1440B00A4E603207047704779
:10502C00704700002D400B0069400B0091400B00B5
:10503C0095400B0000000000000000000000000084
:10504C0057450B004D450B0043450B0039450B00F4
:10505C002D450B0021450B0049470B0051470B0018
:10506C0015450B000D450B0003450B00F9440B00D7
:10507C0081470B00000000000000000075450B008C
:10508C00BF450B0097450B0077450B009F450B0068
:10509C00A7450B00AF450B00B7450B000000000007
:1050AC000000000019460B0009460B000B460B00D4
:1050BC0061707000000000000000000009470B0048
:1050CC0013470B001D470B0027470B0031470B0004
:1050DC003D470B0049470B0051470B0059470B004C
:1050EC0065470B006D470B0077470B0081470B00A2
:1050FC0025592D256D2D25645425483A254D3A25E5
:10510C0053257A0061736374696D650000000000BB
:10511C000000000071490B00DD490B00B5490B0084
:10512C006D480B0085490B00A1490B0093490B00FE
:10513C00AF490B0073490B0077490B0000000000CE
:10514C00000000001B4A0B00834A0B00594A0B005D
:10515C006D480B004B4A0B001D4A0B002D4A0B00EF
:10516C007D4A0B003D4A0B00154A0B000000000065
:10517C00000000007B4B0B00714B0B00674B0B00CE
:10518C001D4B0B005B4B0B004F4B0B0049470B00AF
:10519C0051470B00434B0B003B4B0B00314B0B00AF
:1051AC00274B0B0081470B00005245454E54206D98
:1051BC00616C6C6F63207375636365656465640013
:1051CC002F746D702F6A656E6B696E732D47434338
:1051DC002D31302D706970656C696E652D34385FBA
:1051EC0032303230313132345F3136303631383062
:1051FC003633392F7372632F6E65776C69622F6E3D
:10520C0065776C69622F6C6962632F7374646C6967
:10521C00622F72616E642E630000000021410B004E
:10522C00E9440B0061450B00F9460B0059480B0093
:10523C0019490B0039490B005D490B00854B0B00DC
:10524C00040000001400000003000000474E55004D
:10525C00F4E3689F444B681CCDBAC7400E346022FF
:04526C004502B271D4
:1052700010510B0044E60320000000000000000075
:10528000000000000000000000000000000000001E
:10529000000000000000000000000000000000000E
:1052A00000000000000000000000000000000000FE
:1052B00000000000000000000000000000000000EE
:1052C00000000000000000000000000000000000DE
:0C52D0000000000000000000ECE70320DC
:0452DC0000000000CE
:1052E60000000102030405060708090A0B0C0D0E4F
:1052F6000F101112131415161718191A1B1C1D1E40
:045306001F2028003C
:04530A00785634128B
:04000003B000401CED
:00000001FF
